:020000040800F2
:100000000050002001400008A1030008A3030008DD
:10001000A5030008A7030008A903000800000000CA
:10002000000000000000000000000000AB0300081A
:10003000AD03000800000000AF030008B103000892
:10004000494000084940000849400008494000086C
:10005000494000084940000849400008494000085C
:10006000494000084940000849400008494000084C
:10007000494000084940000849400008494000083C
:10008000494000084940000849400008494000082C
:10009000B9030008494000084940000849400008E9
:1000A000494000084940000849400008494000080C
:1000B00049400008494000084940000849400008FC
:1000C00049400008494000084940000849400008EC
:1000D00049400008494000084940000849400008DC
:1000E000494000084940000849400008000000005D
:1000F0000000000000000000000000000000000000
:0C01000000000000000000005FF808F1A3
:10010C0010B5054C237833B9044B13B10448AFF345
:10011C0000800123237010BD7C0100200000000032
:10012C00A440000808B5034B1BB103490348AFF3C7
:10013C00008008BD0000000080010020A4400008E1
:10014C0072B6FEE700B595B0282200210DEB020037
:10015C0003F09AFF002305930693079308930993E2
:10016C00019302930393049301220A924FF4803378
:10017C000B930E920222119212934FF4E0131393ED
:10018C000AA802F051FBC0B90F2305930221069176
:10019C00002307934FF480620892099305A802F09C
:1001AC0075FD60B9102301930023049301A802F09C
:1001BC0049FE30B915B05DF804FBFFF7C1FFFFF73E
:1001CC00BFFFFFF7BDFF08B502F0F4FAFFF7BAFF67
:1001DC0000F006F800F088F800F012F9FEE70000D5
:1001EC0070B58AB000240694079408940994384B8F
:1001FC009A6942F004029A619A6902F0040201922F
:10020C00019A9A6942F010029A619A6902F01002FE
:10021C000292029A9A6942F008029A619A6902F073
:10022C0008020392039A9A6942F040029A619A6911
:10023C0002F040020492049A9A6942F020029A61F8
:10024C009B6903F020030593059B224E22464FF435
:10025C000071304602F094FF48F2FF1306930794A6
:10026C000225089506A91C4802F078FE41F6F053C9
:10027C0006930794089506A9304602F06FFE4FF6D8
:10028C00F37306930794089506A9144802F066FECA
:10029C004FF6837306930794089506A9104802F04D
:1002AC005DFE4FF6FF7306930794089506A90D485B
:1002BC0002F054FE4FF40073069301230793089445
:1002CC00099506A9304602F049FE0AB070BD00BF80
:1002DC00001002400010014000080140000C0140D9
:1002EC00001801400014014008B50A480A4B03608D
:1002FC004FF4E133436000238360C36003610C223D
:10030C0042618361C36102F0F7FF00B908BDFFF7DA
:10031C0017FFFBE7980100200038014010B586B0AC
:10032C00002302930393049305930268174B9A429C
:10033C0001D006B010BD03F558439A6942F48042CF
:10034C009A619A6902F480420092009A9A6942F08A
:10035C0004029A619B6903F004030193019B4FF41F
:10036C00007302930223039303230593084C02A901
:10037C00204602F0F3FD4FF48063029300230393B5
:10038C00049302A9204602F0E9FDD2E700380140AF
:10039C0000080140FEE7FEE7FEE7FEE7FEE77047D8
:1003AC007047704708B502F017FA08BD08B5024847
:1003BC0001F020F808BD00BFA40E002082B00E4B47
:1003CC009A6942F001029A619A6902F00102009264
:1003DC00009ADA6942F08052DA61DB6903F08053EB
:1003EC000193019B054A536823F0E06343F00073CB
:1003FC00536002B0704700BF001002400000014083
:10040C0008B500220F49104802F0A7FF70B90F4938
:10041C000D4802F0B9FF60B90D490B4803F0BDFD62
:10042C0050B9094802F0B7FF48B908BDFFF788FE7C
:10043C00EDE7FFF785FEEFE7FFF782FEF1E7FFF749
:10044C007FFEF2E700000020E00100206C0000209D
:10045C005000002012230B80004870471C00002025
:10046C0004230B8000487047300000200023934287
:10047C001ED200B510E00CF1370C01F813C00001CE
:10048C004FEA430C0CF1010C4FF0000E01F80CE09C
:10049C000133DBB2934209D24FEA107CB0F1204F0A
:1004AC00E9D20CF1300C01F813C0E8E75DF804FB5D
:1004BC007047000038B50B4BD3F8E807D3F8EC477E
:1004CC00D3F8F037C01800D138BD074D0822A91C4D
:1004DC00FFF7CCFF042205F112012046FFF7C6FFFF
:1004EC00F2E700BF00F0FF1F3400002008B51A230C
:1004FC000B80FFF7DFFF014808BD00BF3400002070
:10050C0008B50A4628B90549054803F09CFB034881
:10051C0008BD0249024803F096FBF8E7A40400204A
:10052C00BC40000810B50A46034C2146034803F0B2
:10053C008AFB204610BD00BFA4040020D440000854
:10054C0008B50A4628B90549054803F07CFB034861
:10055C0008BD0249024803F076FBF8E7A40400202A
:10056C00E840000808B50A4628B90549054803F0D3
:10057C006AFB034808BD0249024803F064FBF8E734
:10058C00A4040020F44000080020704700207047AD
:10059C0010B50146044C204603F00EFD204603F036
:1005AC0011FD002010BD00BFE001002010B5064C6D
:1005BC0000220649204603F0F7FC0549204603F0CB
:1005CC00FBFC002010BD00BFE0010020A40A0020AD
:1005DC00A4060020022805D8DFE800F0050402007C
:1005EC00012070470220704702680E4B9A4200D0DF
:1005FC00704700B583B003F5DA33DA6942F40002D0
:10060C00DA61DB6903F400030193019B00221146BC
:10061C00142002F0CDFD142002F002FE03B05DF8B0
:10062C0004FB00BF005C004008B500F52C71D0F84D
:10063C00EC0202F0C8FE08BD08B501EB810300EB2B
:10064C00C303D3F87C21D0F8EC0202F0E9FE08BD1C
:10065C0008B501EB810300EBC303DA6BD0F8EC02B5
:10066C0002F024FF08BD08B5D0F8EC0202F0C5FF7B
:10067C0008BD10B504468368022B09D10121D4F8BA
:10068C00EC0202F0A3FFD4F8EC0202F077FF10BDED
:10069C00FFF756FDF2E7000010B50446D0F8EC0267
:1006AC0002F097FFA36923B1024A136943F00603D2
:1006BC00136110BD00ED00E008B5D0F8EC0202F0BB
:1006CC0091FF08BD10B504461D48C0F8EC42C4F8B3
:1006DC00C0021C4B03600823436002238360002389
:1006EC008361C361036200F023F930BB182300223D
:1006FC001146D4F8C00201F084F85823002280215E
:10070C00D4F8C00201F07DF8C02300228121D4F876
:10071C00C00201F076F84FF4887300220121D4F85E
:10072C00C00201F06EF84FF4807300228221D4F8DD
:10073C00C00201F066F8002010BDFFF701FDD5E7FF
:10074C00A40E0020005C004008B5D0F8C00200F0F8
:10075C0077F9FFF73FFF08BD08B594461A46634684
:10076C00D0F8C00200F01EFFFFF734FF08BD08B53B
:10077C00D0F8C00200F054FFFFF72CFF08BD08B5FD
:10078C00D0F8C00200F0C6FFFFF724FF08BD08B583
:10079C00D0F8C00200F0FAFFFFF71CFF08BDD0F83C
:1007AC00C03211F0800F08D101F07F0101EB810103
:1007BC0003EBC10191F86A01704701F07F0101312F
:1007CC0001EB810103EBC1018878704708B5D0F8C3
:1007DC00C00200F0FBFDFFF7FDFE08BD08B5D0F828
:1007EC00C00200F075FFFFF7F5FE08BD08B5D0F8A4
:1007FC00C00200F047FFFFF7EDFE08BD08B5D0F8CA
:10080C00C00200F05CFF08BD004870479411002046
:10081C007047704738B512F4804F44D00468B4F870
:10082C0050309BB291F800C003EBCC03023304EBC5
:10083C004303B3F80044C4F309048B69A34228D3DF
:10084C001B1B8B618B697BB9056835F82C309BB20F
:10085C0023F4804323F0700383F4005343F40043E8
:10086C0043F0800325F82C3012F0400F0ED00268B4
:10087C000D7832F825309BB223F4E04323F070035B
:10088C0043F4004343F0C00322F8253024B920463A
:10089C0038BD00238B61D5E723460A894969006876
:1008AC0001F049FFF3E70468B4F850309BB291F8BB
:1008BC0000C003EBCC03063304EB4303B3F8004452
:1008CC00C4F309048B69A3422FD31B1B8B618B6967
:1008DC007BB9056835F82C309BB223F4804323F0A8
:1008EC00700383F4005343F4004343F0800325F872
:1008FC002C3012F0400F0FD1026891F800C032F882
:10090C002C309BB223F4E04323F0700343F40043F8
:10091C0043F0C00322F82C30002CB8D023464A896F
:10092C004969006801F007FFB1E700238B61CEE74E
:10093C0070B586B0002800F08180044690F8A9328A
:10094C00EBB1032384F8A932206800F086FF25461A
:10095C0055F8106BEC460FCDACE80F002B68CCF8BB
:10096C000030231D0ECB304600F067FF054658B112
:10097C00022384F8A9320125284606B070BD80F800
:10098C00A832FFF731FEDCE70021206800F06FFF92
:10099C002B4616E05A1C02EB820104EBC10101202C
:1009AC00487002EB820104F8313004EBC1000021E5
:1009BC00C17003EB830004EBC0008163C16301646D
:1009CC00D3B261688B42E5D316E005EB850304EBEB
:1009DC00C303002283F8692183F8685183F86B21E3
:1009EC00C3F87821C3F87C2105EB850304EBC30322
:1009FC00C3F880210135EDB2A942E6D8254655F859
:100A0C00106BEC460FCDACE80F002B68CCF8003027
:100A1C00231D0ECB304600F02CFF054620B10223DF
:100A2C0084F8A9320125A7E7002384F82430012398
:100A3C0084F8A932206801F07BFA9DE701259BE739
:100A4C0038B590F8A832012B11D00446012580F856
:100A5C00A852006800F0F8FE29462046FFF7D9FEA0
:100A6C00206801F063FA002084F8A80238BD022047
:100A7C00FCE770B505460C46164612F0400F00F028
:100A8C000E810268B2F850309BB2097803EBC103B7
:100A9C00023302EB4303B3F80024C2F30902A36947
:100AAC0093424ED99B1AA361A369002B66D163783C
:100ABC00002B49D12B68B3F8502092B2134403EBAE
:100ACC000111B1F80434C3F30903A1F80434B1F8EB
:100ADC0004346FEA43436FEA53439BB2A1F80434E6
:100AEC002B686278002A3CD1B3F8502092B21344A0
:100AFC00227803EB0213B3F80C24C2F30902A3F817
:100B0C000C24B3F80C246FEA42426FEA524292B2C0
:100B1C00A3F80C2421782846FFF79AFD16F4804F91
:100B2C0041D02A68217832F821309BB223F4E0437B
:100B3C0023F0700343F4404343F0800322F8213048
:100B4C0031E00023A361AFE7012BC9D12B68B3F8C7
:100B5C00502092B2134403EB01110023A1F804348A
:100B6C00BEE7012AD6D1B3F8502092B213442278B2
:100B7C0003EB02130022A3F80C24CBE716F4804FEE
:100B8C000DD0286830F821309BB223F4E04323F0D9
:100B9C00700343F4404343F0800320F8213094F871
:100BAC002430012B12D02A68217832F821309BB2E4
:100BBC0023F4E04323F0400383F0300343F4004379
:100BCC0043F0800322F82130002070BD6369134488
:100BDC006361E3691344E361216A2369994224D375
:100BEC00C91A21626278002A44D12A68B2F85010DE
:100BFC0089B20A44217802EB0112B2F80414C1F351
:100C0C000901A2F804143E2B1BD9580913F01F0F2D
:100C1C0000D10138B2F8041489B2800280B20143C9
:100C2C0041F40041A2F8041426E021B9002384F811
:100C3C0024301346D6E7002384F8243023620B4675
:100C4C00D0E74BB9B2F804146FEA41416FEA514155
:100C5C0089B2A2F804140FE0590813F0010F00D068
:100C6C000131B2F8040480B2890289B20143A2F8BE
:100C7C00041401E0012A06D09BB22289616928681C
:100C8C0001F05EF98FE72A68B2F8501089B20A4475
:100C9C00217802EB011299B2A2F80414ECE7026875
:100CAC00B2F850309BB2097803EBC103063302EB68
:100CBC004303B3F80024C2F30902A36993424FD350
:100CCC009B1AA361A369002B67D16378002B4AD1CF
:100CDC002B68B3F8502092B2134403EB0111B1F816
:100CEC000434C3F30903A1F80434B1F804346FEAF3
:100CFC0043436FEA53439BB2A1F804342B686278E8
:100D0C00002A3DD1B3F8502092B21344227803EB61
:100D1C000213B3F80C24C2F30902A3F80C24B3F8A1
:100D2C000C246FEA42426FEA524292B2A3F80C24AE
:100D3C0021782846FFF78CFC16F4804F7FF433AFF4
:100D4C002A68217832F821309BB223F4E04323F057
:100D5C00700343F4404343F0800322F8213022E730
:100D6C000023A361AEE7012BC8D12B68B3F8502048
:100D7C0092B2134403EB01110023A1F80434BDE734
:100D8C00012AD5D1B3F8502092B21344227803EB48
:100D9C0002130022A3F80C24CAE716F4804F0DD1DD
:100DAC00286830F821309BB223F4E04323F0700321
:100DBC0043F4404343F0800320F8213094F824306E
:100DCC00012B7FF4F0AE636913446361E369134450
:100DDC00E361216A2369994224D3C91A21622A68E2
:100DEC006178002943D1B2F8501089B20A442178B5
:100DFC0002EB0112B2F80C14C1F30901A2F80C14A5
:100E0C003E2B1BD9580913F01F0F00D10138B2F833
:100E1C000C1489B2800280B2014341F40041A2F863
:100E2C000C1426E021B9002384F824301346D6E7AD
:100E3C000023236284F824300B46D0E74BB9B2F878
:100E4C000C146FEA41416FEA514189B2A2F80C14BB
:100E5C000FE0590813F0010F00D00131B2F80C0467
:100E6C0080B2890289B20143A2F80C1401E0012975
:100E7C0006D09BB262896169286801F061F892E63C
:100E8C00B2F8501089B20A44217802EB011299B2DF
:100E9C00A2F80C14EDE72DE9F04105462868B0F8EE
:100EAC00443013F4004F00F08E82B0F84440A3B2EB
:100EBC0014F00F0440F0E28013F0100F6BD0038895
:100ECC009AB213F4006F40F09D8012F4004FE5D0FD
:100EDC00038823F070031B051B0D43F08003038074
:100EEC002868B0F850309BB295F8682103EBC20328
:100EFC00063300EB4303B3F80034C3F30903C5F81E
:100F0C0084318BB1D5F87C1171B1B5F86E2101F03B
:100F1C0012FCD5F88421D5F87C311344C5F87C310A
:100F2C0000212846FFF788FB2A68138899B213F42E
:100F3C00006FB3D101F44051B1F5405FAED0B2F8BF
:100F4C0050309BB21A44B2F80C34C3F30903A2F824
:100F5C000C34D5F878313E2B77D9590913F01F0F83
:100F6C0000D10139B2F80C349BB2890289B20B431F
:100F7C0043F40043A2F80C342A6813889BB223F480
:100F8C00804323F0700383F4405343F4004343F055
:100F9C008003138082E703889BB223F4E14323F0A0
:100FAC0070036FEA43436FEA53439BB203802A6892
:100FBC00B2F850309BB295F8281003EBC103023302
:100FCC0002EB4303B3F80034C3F309036B64EA6B1D
:100FDC001344EB6300212846FFF73AFB95F82430C5
:100FEC00002B3FF45BAF2B6C002B7FF457AF95F8C5
:100FFC0024302A6843F08003A2F84C30002385F893
:10100C0024304BE7B0F850309BB295F8682103EBD5
:10101C00C203063300EB4303B3F80034C3F30903F4
:10102C00C5F88431B5F86E2105F52C7101F083FB00
:10103C002A68138823F070031B051B0D43F08003F3
:10104C0013802846FFF7F0FA28E74BB9B2F80C34B6
:10105C006FEA43436FEA53439BB2A2F80C348BE71D
:10106C00590813F0010F00D00131B2F80C3498B2CA
:10107C008B029BB20343A2F80C347DE730F824308A
:10108C009EB213F4004F4CD116F0800F3FF406AF14
:10109C00621C02EB820105EBC101286830F8243098
:1010AC009BB223F4E14323F070036FEA43436FEAEE
:1010BC0053439BB220F82430CB78012B00F0F28004
:1010CC0016F4807F40F07A812868B0F850309BB2DB
:1010DC00621C02EB820215F8326003EBC60302338A
:1010EC0000EB4303B3F80034C3F3090304EB8402AD
:1010FC0005EBC202126C9A4240F24C8104EB84075D
:10110C0005EBC707D21A3A6404EB840205EBC20262
:10111C00126C002A40F0458131462846FFF798FAB8
:10112C00BCE630F8243023F070031B051B0D43F094
:10113C00800320F8243004EB8401C90001F5B4715C
:10114C0005EB010804EB840305EBC30393F874313E
:10115C00002B42D12868B0F850309BB204EB8402CB
:10116C0005EBC20292F8682103EBC203063300EBD5
:10117C004303B3F80074C7F3090717BB04EB8403EC
:10118C0005EBC303D3F884213A44C3F88421D3F884
:10119C007C213A44C3F87C21D3F880313BB104EB79
:1011AC00840305EBC303D3F878319F4275D204EB6B
:1011BC00840305EBC30393F868112846FFF73CFA48
:1011CC0062E704EB840105EBC1013B46B1F86E21EB
:1011DC00D1F87C1101F0AFFAD0E704EB840305EBF6
:1011EC00C30393F86B31022B35D0296804EB8402CE
:1011FC0005EBC20292F8680131F820309BB223F45F
:10120C00E04323F0700343F4004343F0C00321F8A0
:10121C002030286892F8682130F8223013F4804F7F
:10122C0020D0B0F850309BB203EBC203023300EB7A
:10123C004303B3F80074C7F30907002F9ED004EBE7
:10124C00840105EBC1013B46B1F87021D1F87C114A
:10125C0001F071FA92E7324641462846FFF7DAFA76
:10126C0007468BE7B0F850309BB203EBC203063352
:10127C0000EB4303B3F80074C7F30907002F3FF4E6
:10128C007DAF04EB840105EBC1013B46B1F8722143
:10129C00D1F87C1101F04FFA70E74146286800F054
:1012AC0063FEF1E604EB840305EBC30300221A642E
:1012BC0093F83430FBB116F0400F37D04B781BBB92
:1012CC002B68B3F8502092B21344621C02EB8202DA
:1012DC0015F8322003EB0213B3F80424C2F309020D
:1012EC00A3F80424B3F804246FEA42426FEA524292
:1012FC0092B2A3F80424013404EB840415F83410DE
:10130C002846FFF7A5F9C9E5012BF4D12B68B3F8F2
:10131C00502092B21344621C02EB820215F8322068
:10132C0003EB02130022A3F80424E4E72A68631CED
:10133C0003EB830305EBC3035B78D3B9B2F85030EE
:10134C009BB21344621C02EB820215F8322003EBB1
:10135C000213B3F80C24C2F30902A3F80C24B3F85B
:10136C000C246FEA42426FEA524292B2A3F80C2468
:10137C00C1E7012BBFD1B2F850309BB21344621CB1
:10138C0002EB820215F8322003EB02130022A3F8C1
:10139C000C24B0E704EB840205EBC20200271764AF
:1013AC00B2E604EB840205EBC202D66B1E44D66394
:1013BC00546C2344536400F0D7FD6FE53246284645
:1013CC00FFF757FB6AE50020BDE8F08190F8A832E2
:1013DC00012B0DD010B50446012380F8A83280F8FB
:1013EC002410006800F09CFD002084F8A80210BDB9
:1013FC000220704710B584B00446006800F09AFDD6
:10140C0010F4004F20D110F4806F21D110F4804FD4
:10141C002FD110F4005F37D110F4805F3ED110F45F
:10142C00006F40F0878010F4007F40F0AE8010F425
:10143C00807F27D02268B2F844309BB223F48073AB
:10144C009BB2A2F844301DE02046FFF724FD19E0C2
:10145C002268B2F844309BB223F480639BB2A2F8AA
:10146C0044302046FFF705F900212046FFF7AEFF78
:10147C0008E02268B2F844309BB223F480439BB25C
:10148C00A2F8443004B010BD2268B2F844309BB2CC
:10149C0023F400539BB2A2F84430F3E72268B2F86D
:1014AC0040309BB223F004039BB2A2F84030226878
:1014BC00B2F840309BB223F008039BB2A2F8403044
:1014CC002046FFF7F9F82268B2F844309BB223F4B7
:1014DC0080539BB2A2F84430D4E7226832F8231030
:1014EC0004AA02EB430222F8101C0133DBB2072BD7
:1014FC00F3D92268B2F840309BB243F00103A2F852
:10150C0040302268B2F840309BB223F001039BB20A
:10151C00A2F840302368B3F8442012F4806FF9D05D
:10152C00B3F8442092B222F4806292B2A3F8442021
:10153C0000230BE00023DAE7226804A901EB430146
:10154C0031F8101C22F823100133DBB2072BF3D92E
:10155C002268B2F840309BB243F00803A2F8403046
:10156C002268B2F844309BB223F400639BB2A2F819
:10157C0044302268B2F840309BB243F00403A2F826
:10158C0040302046FFF788F87CE72268B2F84430F8
:10159C009BB223F400739BB2A2F844302046FFF7B1
:1015AC0062F86FE710B50446084611F0800F25D19C
:1015BC0001F0070C0CEB8C01C90001F5B47E04EBB7
:1015CC000E010CEB8C0C04EBCC0C4FF0000E8CF8D9
:1015DC0069E100F0070008700A61CB70022B1AD089
:1015EC0094F8A832012B19D0012384F8A832206872
:1015FC0000F050F9002084F8A80210BD01F0070C8F
:10160C000CF1010C0CEB8C0104EBC1014FF0010E41
:10161C0081F801E0DDE700230B71E1E70220ECE744
:10162C0010B504460B4611F0800F1FD101F00702D4
:10163C0002EB8201C90001F5B471014402EB820294
:10164C0000EBC202002082F8690103F007030B7063
:10165C0094F8A832012B13D0012384F8A832206807
:10166C0000F0FDFA002084F8A80210BD01F007027A
:10167C00013202EB820100EBC10101204870E4E76A
:10168C000220F2E710B501F0070C0CEB8C01C9003D
:10169C0001F5B4710CEB8C0E00EBCE0ECEF87C2168
:1016AC00CEF880310024CEF884418EF869418EF852
:1016BC0068C10144006800F057FC204610BD01F0E1
:1016CC00070101EB810100EBC101D1F884017047E6
:1016DC0038B501F0070404F1010C0CEB8C0104EBA0
:1016EC00840E00EBCE0ECEF83C20CEF8403001221A
:1016FC008EF84C20CEF848300025CEF8445000EB44
:10170C00C1035A7000F831401946006800F02CFCF7
:10171C00284638BD38B501F007054268954231D8E6
:10172C0004460B4611F0800F1ED101EB8101C9005C
:10173C0001F5B471014403EB830300EBC3030022F6
:10174C0083F8692101238B700D7094F8A832012B5A
:10175C001AD0012384F8A832206800F06BFB5DB12D
:10176C00002084F8A80238BD6B1C03EB830100EB4E
:10177C00C10101224A70E5E704F52C71206800F0E4
:10178C00DDFBEDE70120EEE70220ECE70B4601F074
:10179C000F014268914230D810B5044613F0800F07
:1017AC0021D103F0070202EB8201C90001F5B471EB
:1017BC00014402EB820200EBC202002082F86901B4
:1017CC0000228A7003F007030B7094F8A832012BE7
:1017DC0015D0012384F8A832206800F050FB0020BB
:1017EC0084F8A80210BD03F00702013202EB82015B
:1017FC0000EBC10101204870E2E701207047022094
:10180C00F0E711F0800F0BD001F00701013101EB73
:10181C00810100EBC10152B90A73CB8000207047E3
:10182C0001EB8101C90001F5B4710144F3E7012218
:10183C000A730B811B0C4B81F0E784B001A880E884
:10184C000E00002004B0704703460020A3F84400AB
:10185C004FF43F42A3F840207047B0F8403023F4D7
:10186C007C535B045B0CA0F84030002070470020D8
:10187C00704784B0844601A880E80E000123ACF8C0
:10188C0040300020ACF84000ACF84400ACF85000FC
:10189C0004B0704710B5034691F800C030F82C2006
:1018AC0092B222F4EC4222F0700292B2C878032871
:1018BC0061D8DFE800F0555C0258002048F2800E39
:1018CC0042EA0E0223F82C2091F800C033F82C20A9
:1018DC0092B222F4E04222F070024CEA020242EA96
:1018EC000E0223F82C200A7B002A40F0DC804A7878
:1018FC00002A51D0B3F8502092B21A440C7802EB63
:10190C000412B1F806C04FEA5C0C4FEA4C0CA2F87A
:10191C0000C40C7833F8242012F0400F0CD033F8AC
:10192C00242092B222F4E04222F0700242F40042EF
:10193C0042F0C00223F82420CA78012A1DD009786D
:10194C0033F8212092B222F4E04222F0400282F0DD
:10195C00200242F4004242F0800223F8212017E1D9
:10196C0042F40072AAE742F4C0620020A6E742F4F7
:10197C0080620020A2E70120A0E7097833F821203B
:10198C0092B222F4E04222F0400242F4004242F0D1
:10199C00800223F82120FBE0B3F8502092B21A44C5
:1019AC000C7802EB0412B1F806C04FEA5C0C4FEA5B
:1019BC004C0CA2F808C4B3F8502092B21A440C781C
:1019CC0002EB0412B2F80CC4CCF3090CA2F80CC450
:1019DC000C693E2C39D94FEA541E14F01F0F01D15B
:1019EC000EF1FF3EB2F80CC41FFA8CFC4FEA8E2E9F
:1019FC001FFA8EFE4CEA0E0C4CF4004CA2F80CC4F0
:101A0C000C7833F8242012F4804F0CD033F82420B7
:101A1C0092B222F4E04222F0700242F4404242F0D0
:101A2C00800223F82420097869BB33F8212092B274
:101A3C0022F4804222F0700282F4405242F40042BE
:101A4C0042F0800223F82120A2E04CB9B2F80C44F9
:101A5C006FEA44446FEA5444A4B2A2F80C44CFE7B2
:101A6C004FEA540C14F0010F01D00CF1010CB2F838
:101A7C000C44A4B24FEA8C2C1FFA8CFC44EA0C0CDC
:101A8C00A2F80CC4BCE733F8212092B222F48042B5
:101A9C0022F0700282F4005242F4004242F08002C2
:101AAC0023F8212074E0CA78022A72D00C7833F81B
:101ABC00242092B222F4E24222F0700242F400425C
:101ACC0042F0800223F82420B3F8502092B21A443A
:101ADC0091F800C002EB0C12B1F808C04FEA5C0C94
:101AEC004FEA4C0CA2F800C4B3F8502092B21A443E
:101AFC0091F800C002EB0C12B1F80AC04FEA5C0C72
:101B0C004FEA4C0CA2F808C44A78002A50D10C7841
:101B1C0033F8242012F4804F0CD033F8242092B2E6
:101B2C0022F4E04222F0700242F4404242F0800281
:101B3C0023F824200C7833F8242012F0400F0CD01A
:101B4C0033F8242092B222F4E04222F0700242F4E4
:101B5C00004242F0C00223F8242091F800C033F870
:101B6C002C2092B222F4804222F0700282F4405275
:101B7C0048F28004224323F82C20097833F82120E2
:101B8C0092B222F4E04222F04002224323F82120B8
:101B9C0010BD0C7833F8242092B222F4E04222F0EB
:101BAC00700242F4014242F0800223F824208BE7B9
:101BBC000C7833F8242012F4804F0CD033F8242006
:101BCC0092B222F4E04222F0700242F4404242F01F
:101BDC00800223F824200C7833F8242012F0400FD4
:101BEC000CD033F8242092B222F4E04222F070029E
:101BFC0042F4004242F0C00223F82420CA78012AA1
:101C0C001ED00C7833F8242092B222F4E04222F059
:101C1C00400282F0200242F4004242F0800223F89B
:101C2C002420097833F8212092B222F4804222F049
:101C3C00700242F4004242F0800223F82120A7E710
:101C4C000C7833F8242092B222F4E04222F04002C5
:101C5C0042F4004242F0800223F82420E1E70B7B9F
:101C6C00002B46D14B7813B30A7830F8223013F09E
:101C7C00400F0CD030F822309BB223F4E04323F019
:101C8C00700343F4004343F0C00320F822300A7879
:101C9C0030F822309BB223F4E04323F0400343F4AA
:101CAC00004343F0800320F82230002070470A786C
:101CBC0030F8223013F4804F0CD030F822309BB225
:101CCC0023F4E04323F0700343F4404343F08003D8
:101CDC0020F822300A7830F822309BB223F480436B
:101CEC0023F0700343F4004343F0800320F82230C8
:101CFC00DBE74B78002B4ED10A7830F8223013F406
:101D0C00804F0CD030F822309BB223F4E04323F008
:101D1C00700343F4404343F0800320F822300A78E8
:101D2C0030F8223013F0400F0CD030F822309BB238
:101D3C0023F4E04323F0700343F4004343F0C00367
:101D4C0020F822300A7830F822309BB223F4E0439A
:101D5C0023F0700343F4004343F0C00320F8223017
:101D6C000B7830F8232092B222F4804222F07002D9
:101D7C0048F2800C42EA0C0220F823200A7830F852
:101D8C0022309BB223F4E04323F0400343EA0C03DC
:101D9C0020F8223089E70A7830F8223013F4804F8B
:101DAC000CD030F822309BB223F4E04323F07003C4
:101DBC0043F4404343F0800320F822300A7830F893
:101DCC00223013F0400F0CD030F822309BB223F4A9
:101DDC00E04323F0700343F4004343F0C00320F8C6
:101DEC0022300A7830F822309BB223F4E04323F0FF
:101DFC00700343F4404343F0800320F822300B7807
:101E0C0030F8232092B222F4E04222F0400248F251
:101E1C00800C42EA0C0220F823200A7830F8223099
:101E2C009BB223F4804323F0700343EA0C0320F8A5
:101E3C0022303AE74B788BB10A7830F822309BB2DB
:101E4C0023F4E04323F0400383F0100343F40043F6
:101E5C0043F0800320F82230002070470A7830F8D5
:101E6C0022309BB223F4804323F0700383F480531D
:101E7C0043F4004343F0800320F82230ECE70B7B63
:101E8C00002B4BD14B7833B30A7830F8223013F057
:101E9C00400F0CD030F822309BB223F4E04323F0F7
:101EAC00700343F4004343F0C00320F82230CB7896
:101EBC00012B33D00A7830F822309BB223F4E04364
:101ECC0023F0400383F0200343F4004343F08003EA
:101EDC0020F8223022E00A7830F8223013F4804FB8
:101EEC000CD030F822309BB223F4E04323F0700383
:101EFC0043F4404343F0800320F822300A7830F852
:101F0C0022309BB223F4804323F0700383F44053BC
:101F1C0043F4004343F0800320F822300020704744
:101F2C0011B98023A0F84C30002070470020704776
:101F3C0000207047B0F8440080B270470020704712
:101F4C0010B45C1C640800EB420202F5806207E0EE
:101F5C000B78487843EA002322F8043B0231013C19
:101F6C00002CF5D110BC704770B505460C464A786C
:101F7C00012A3BD00B7B002B40F0A6828B690A69AF
:101F8C00934240F284829B1A8B61B5F850309BB21D
:101F9C002B44217803EB0113B3F80C14C1F30901A2
:101FAC00A3F80C143E2A40F27682510912F01F0F4E
:101FBC0000D10139B3F80C2492B2890289B20A43D8
:101FCC0042F40042A3F80C24227835F822309BB25C
:101FDC0023F4804323F0700383F4405343F4004311
:101FEC0043F0800325F82230002070BD8E6909690A
:101FFC008E4200D90E46237B73B3E378022B4DD06F
:10200C00236A9B1B2362217835F8213013F0400F93
:10201C0000F0F581002A40F0E281B5F850309BB217
:10202C002B4403EB0113B3F80C24C2F30902A3F8FD
:10203C000C243E2E40F2BA81710916F01F0F00D10C
:10204C000139B3F80C2492B2890289B20A4342F4E2
:10205C000042A3F80C24CBE1B6B23346E2886169A6
:10206C002846FFF76DFFB5F850309BB22B44227811
:10207C0003EB0213A3F80464227835F822309BB2E8
:10208C0023F4E04323F0400383F0300343F4004394
:10209C0043F0800325F822300020A6E7236A9942FA
:1020AC0080F06681227835F822309BB223F4E0432D
:1020BC0023F0700343F4014343F0800325F82230EE
:1020CC00236A9B1B2362227835F8223013F0400FD1
:1020DC0000F0A7806378B3BBB5F850309BB22B44AB
:1020EC0003EB0213B3F80C24C2F30902A3F80C247B
:1020FC003E2E0FD9710916F01F0F00D10139B3F81C
:10210C000C2492B2890289B20A4342F40042A3F829
:10211C000C241AE04EB9B3F80C246FEA42426FEA71
:10212C00524292B2A3F80C240FE0720816F0010F81
:10213C0000D00132B3F80C1489B2920292B20A4365
:10214C00A3F80C2401E0012B30D0B3B26289616991
:10215C002846FFF7F5FE636933446361236A2269FD
:10216C0093422DD99B1B23626378002B45D1B5F884
:10217C0050309BB22B44227803EB0213B3F80424A7
:10218C00C2F30902A3F804243E2E1DD9710916F0DE
:10219C001F0F00D10139B3F8042492B2890289B21D
:1021AC000A4342F40042A3F8042428E0B5F8503066
:1021BC009BB22B4403EB0213B2B2A3F80C24C4E77A
:1021CC00002222621E46CFE74EB9B3F804246FEA10
:1021DC0042426FEA524292B2A3F804240FE0720812
:1021EC0016F0010F00D00132B3F8041489B2920238
:1021FC0092B20A43A3F8042401E0012B06D0B3B237
:10220C00228961692846FFF79BFE35E7B5F8503007
:10221C009BB22B44227803EB0213B2B2A3F8042432
:10222C00EDE76378B3BBB5F850309BB22B4403EBAE
:10223C000213B3F80424C2F30902A3F804243E2EBB
:10224C000FD9710916F01F0F00D10139B3F804240E
:10225C0092B2890289B20A4342F40042A3F80424E0
:10226C001AE04EB9B3F804246FEA42426FEA5242C4
:10227C0092B2A3F804240FE0720816F0010F00D0FC
:10228C000132B3F8041489B2920292B20A43A3F851
:10229C00042401E0012B30D0B3B2228961692846B5
:1022AC00FFF74EFE636933446361236A22699342EC
:1022BC002DD99B1B23626378002B45D1B5F8503088
:1022CC009BB22B44227803EB0213B3F80C24C2F319
:1022DC000902A3F80C243E2E1DD9710916F01F0F0C
:1022EC0000D10139B3F80C2492B2890289B20A43A5
:1022FC0042F40042A3F80C2428E0B5F850309BB20D
:10230C002B4403EB0213B2B2A3F80424C4E700225B
:10231C0022621E46CFE74EB9B3F80C246FEA424254
:10232C006FEA524292B2A3F80C240FE0720816F036
:10233C00010F00D00132B3F80C1489B2920292B2A0
:10234C000A43A3F80C2401E0012B06D0B3B2628936
:10235C0061692846FFF7F4FD8EE6B5F850309BB264
:10236C002B44227803EB0213B2B2A3F80C24EDE752
:10237C00217835F8212092B222F4E24222F0700248
:10238C0042F4004242F0800225F82120B5F850209A
:10239C0092B22A44217802EB01129BB2A2F80434C7
:1023AC00228961692846FFF7CBFD65E64EB9B3F883
:1023BC000C246FEA42426FEA524292B2A3F80C2408
:1023CC0016E0720816F0010F00D00132B3F80C14AD
:1023DC0089B2920292B20A43A3F80C2408E0B5F831
:1023EC0050309BB22B4403EB0113B2B2A3F80C2474
:1023FC00B3B2628961692846FFF7A2FD3CE6B2BB25
:10240C00B5F850309BB22B4403EB0113B3F8042402
:10241C00C2F30902A3F804243E2E0FD9710916F059
:10242C001F0F00D10139B3F8042492B2890289B28A
:10243C000A4342F40042A3F8042421E04EB9B3F855
:10244C0004246FEA42426FEA524292B2A3F8042487
:10245C0016E0720816F0010F00D00132B3F8041424
:10246C0089B2920292B20A43A3F8042408E0B5F8A8
:10247C0050309BB22B4403EB0113B2B2A3F80424EB
:10248C00B3B2228961692846FFF75AFDF4E50022B0
:10249C008A611A4679E54AB9B3F80C246FEA4242CC
:1024AC006FEA524292B2A3F80C248DE5510812F057
:1024BC00010F00D00131B3F80C2492B2890289B219
:1024CC001143A3F80C147FE5CB78022B4DD0012BD4
:1024DC0040F02F8189692369994240F2E680C91A3C
:1024EC00A161F2B9B5F8502092B22A44217802EBDE
:1024FC000112B2F80414C1F30901A2F804143E2B22
:10250C0040F2D780580913F01F0F00D10138B2F8F0
:10251C00041489B2800280B2014341F40041A2F854
:10252C0004146278002A40F0F680B5F8502092B27C
:10253C002A44217802EB0112B2F80C14C1F3090100
:10254C00A2F80C143E2B40F2CD80590913F01F0F4A
:10255C0000D10139B2F80C349BB2890289B20B4319
:10256C0043F40043A2F80C342EE5F2B9B0F8503025
:10257C009BB203440A7803EB0213B3F80424C2F3AE
:10258C000902A3F804240A693E2A31D9510912F030
:10259C001F0F00D10139B3F8042492B2890289B219
:1025AC000A4342F40042A3F804246378002B51D16F
:1025BC00B5F850309BB22B44227803EB0213B3F8DE
:1025CC000C24C2F30902A3F80C2422693E2A28D950
:1025DC00510912F01F0F00D10139B3F80C2492B23B
:1025EC00890289B20A4342F40042A3F80C2433E076
:1025FC004AB9B3F804246FEA42426FEA524292B2EB
:10260C00A3F80424D1E7510812F0010F00D00131D6
:10261C00B3F8042490B28A0292B20243A3F80424C1
:10262C00C3E74AB9B3F80C246FEA42426FEA52424C
:10263C0092B2A3F80C240FE0510812F0010F00D055
:10264C000131B3F80C2490B28A0292B20243A3F87F
:10265C000C2401E0012B1DD0E369002B3FF4B4AC3A
:10266C00227835F8221044F2400303EA01008B4330
:10267C0002D000287FF4A8AC35F822309BB223F4AA
:10268C00E04323F0700343F4004343F0C00325F808
:10269C00223099E4B5F850309BB22B44227803EBEE
:1026AC000213228AA3F80C24D6E70023A3610B465D
:1026BC0017E74BB9B2F804146FEA41416FEA514184
:1026CC0089B2A2F804142CE7590813F0010F00D0BA
:1026DC000131B2F8040480B2890289B20143A2F834
:1026EC0004141EE74BB9B2F80C346FEA43436FEA9B
:1026FC0053439BB2A2F80C3466E4590813F0010F53
:10270C0000D00131B2F80C3498B28B029BB2034367
:10271C00A2F80C3458E4012A7FF456ACB5F85020DA
:10272C0092B22A44217802EB01129BB2A2F80C342B
:10273C004AE4012059E410B45C0800EB420000F5B7
:10274C00806007E030F8042B0A70C2F307224A704D
:10275C000231013C002CF5D113F0010F01D003889C
:10276C000B7010BC7047000010B504460E4B187867
:10277C004FF47A73B3FBF0F30C4A1068B0FBF3F030
:10278C0000F05CFD68B90F2C01D901200AE0002291
:10279C0021464FF0FF3000F00BFD054B1C60002074
:1027AC0000E0012010BD00BF600000206800002088
:1027BC006400002008B5074A136843F01003136047
:1027CC00032000F0E3FC0F20FFF7CEFFFDF7F6FD32
:1027DC00002008BD00200240034A1168034B1B78FF
:1027EC000B441360704700BFB4130020600000203E
:1027FC00014B1868704700BFB413002082B0084B1F
:10280C001B68084AA2FB03235B0A00FB03F301933A
:10281C0000BF019B5A1E0192002BF9D102B07047E8
:10282C0068000020D34D6210002800F0F18170B5D3
:10283C0082B00446036813F0010F2CD0994B5B68EF
:10284C0003F00C03042B1DD0964B5B6803F00C03B8
:10285C00082B12D06368B3F5803F41D0002B55D1C3
:10286C0003F1804303F504331A6822F480321A60B2
:10287C001A6822F480221A6037E08A4B5B6813F4E2
:10288C00803FE7D0874B1B6813F4003F03D063688D
:10289C00002B00F0BF81236813F0020F75D0814B21
:1028AC005B6813F00C0F5FD07E4B5B6803F00C037E
:1028BC00082B54D02369002B00F08A807A4B01221C
:1028CC001A60FFF795FF0546764B1B6813F0020F55
:1028DC0075D1FFF78DFF401B0228F5D903209EE12F
:1028EC00704A136843F480331360636843B3FFF793
:1028FC007FFF05466B4B1B6813F4003FCBD1FFF7F2
:10290C0077FF401B6428F5D9032088E1B3F5A02F8D
:10291C0009D0644B1A6822F480321A601A6822F4C7
:10292C0080221A60E1E703F18043A3F53C331A6877
:10293C0042F480221A601A6842F480321A60D4E79A
:10294C00FFF756FF0546574B1B6813F4003FA2D008
:10295C00FFF74EFF401B6428F5D903205FE1514B74
:10296C005B6813F4803FA5D14E4B1B6813F0020F2C
:10297C0003D02369012B40F04F814A4A136823F09E
:10298C00F803616943EAC1031360236813F0080F6D
:10299C0033D0A369002B5CD0434B0122C3F88024B5
:1029AC00FFF726FF05463F4B5B6A13F0020F21D160
:1029BC00FFF71EFF401B0228F5D903202FE1394AEF
:1029CC00136823F0F803616943EAC1031360DCE781
:1029DC00354B00221A60FFF70BFF0546314B1B6885
:1029EC0013F0020FD1D0FFF703FF401B0228F5D9DB
:1029FC00032014E10120FFF701FF236813F0040FFB
:102A0C0000F09680274BDB6913F0805F34D1254BA7
:102A1C00DA6942F08052DA61DB6903F0805301938A
:102A2C00019B0125214B1B6813F4807F26D0E368A2
:102A3C00012B3DD0002B53D103F1804303F504331C
:102A4C001A6A22F001021A621A6A22F004021A624D
:102A5C0033E0154B0022C3F88024FFF7C9FE05466E
:102A6C00104B5B6A13F0020FC7D0FFF7C1FE401B7F
:102A7C000228F5D90320D2E00025D3E70B4A1368CE
:102A8C0043F480731360FFF7B3FE0646074B1B68D5
:102A9C0013F4807FCBD1FFF7ABFE801B6428F5D9F4
:102AAC000320BCE0001002400000424200700040D5
:102ABC005F4A136A43F001031362E36833B3FFF711
:102ACC0097FE06465A4B1B6A13F0020F2FD1FFF7E5
:102ADC008FFE801B41F288339842F3D903209EE08D
:102AEC00052B09D0524B1A6A22F001021A621A6A9B
:102AFC0022F004021A62E0E74D4B1A6A42F004021B
:102B0C001A621A6A42F001021A62D6E7FFF770FEE7
:102B1C000646474B1B6A13F0020F08D0FFF768FEFE
:102B2C00801B41F288339842F3D9032077E0E5B952
:102B3C00E369002B72D03E4A526802F00C02082A5C
:102B4C0056D0022B17D03B4B00221A66FFF750FED3
:102B5C000446374B1B6813F0007F47D0FFF748FE45
:102B6C00001B0228F5D9032059E0314AD36923F020
:102B7C008053D361DCE72F4B00221A66FFF738FE37
:102B8C0005462B4B1B6813F0007F06D0FFF730FE79
:102B9C00401B0228F5D9032041E0236AB3F5803F9E
:102BAC001AD023494B6823F47413226A606A0243D7
:102BBC0013434B601F4B01221A66FFF719FE0446A4
:102BCC001B4B1B6813F0007F0ED1FFF711FE001B8F
:102BDC000228F5D9032022E0154A536823F4003368
:102BEC00A1680B435360DCE7002018E0002016E0DE
:102BFC00012B16D00E4B5B6803F48031226A914294
:102C0C0011D103F47013626A93420ED1002006E0D6
:102C1C0001207047012002E0012000E0002002B0FA
:102C2C0070BD0120FBE70120F9E70120F7E700BFA9
:102C3C0000100240000042420F4B5B6803F00C0294
:102C4C00082A01D00D487047C3F383420C49885CB5
:102C5C0013F4803F0BD0084B5B68C3F34043094A25
:102C6C00D35C064A02FB00F0B0FBF3F07047064B56
:102C7C0003FB00F0704700BF0010024000127A0006
:102C8C00044100081441000800093D00002800F030
:102C9C00A08070B50D460446524B1B6803F0070329
:102CAC008B420BD24F4A136823F007030B4313607C
:102CBC00136803F007038B4240F08D80236813F0F8
:102CCC00020F17D013F0040F04D0474A536843F493
:102CDC00E0635360236813F0080F04D0424A536832
:102CEC0043F460535360404A536823F0F003A168E7
:102CFC000B435360236813F0010F31D06368012B31
:102D0C0020D0022B25D0384A126812F0020F64D062
:102D1C0035494A6822F0030213434B60FFF768FD04
:102D2C000646314B5B6803F00C036268B3EB820F11
:102D3C0016D0FFF75DFD801B41F288339842F0D925
:102D4C00032045E0284A126812F4003FE0D101202C
:102D5C003EE0254A126812F0007FD9D1012037E0FD
:102D6C00204B1B6803F00703AB420AD91D4A1368BA
:102D7C0023F007032B431360136803F00703AB42E4
:102D8C002DD1236813F0040F06D0174A536823F48F
:102D9C00E063E1680B435360236813F0080F07D01E
:102DAC00114A536823F46053216943EAC103536009
:102DBC00FFF742FF0C4B5B68C3F303130B4AD35C66
:102DCC00D8400B4B18600B4B1868FFF7CDFC00205C
:102DDC0070BD012070470120FAE70120F8E70120BF
:102DEC00F6E700BF00200240001002401841000826
:102DFC006800002064000020014B1868704700BF79
:102E0C006800002008B5FFF7F7FF044B5B68C3F3BD
:102E1C000223034AD35CD84008BD00BF0010024017
:102E2C002841000808B5FFF7E7FF044B5B68C3F3C4
:102E3C00C223034AD35CD84008BD00BF0010024037
:102E4C002841000870B582B00446036813F0010FE6
:102E5C0036D03F4BDB6913F0805F49D13C4BDA69CC
:102E6C0042F08052DA61DB6903F080530193019BDD
:102E7C000125384B1B6813F4807F3BD0344B1B6A05
:102E8C0013F4407313D0626802F440729A420ED06D
:102E9C002F4A136A23F440702F490126C1F840646D
:102EAC000026C1F84064106213F0010F36D1284A95
:102EBC00136A23F4407361680B431362002D3ED1F7
:102ECC00236813F0020F06D0214A536823F44043C1
:102EDC00A1680B435360236813F0100F34D01C4AC5
:102EEC00536823F48003E1680B43536000202CE00B
:102EFC000025BEE7174A136843F480731360FFF78D
:102F0C0077FC0646134B1B6813F4807FB6D1FFF792
:102F1C006FFC801B6428F5D9032016E0FFF768FCD2
:102F2C0006460B4B1B6A13F0020FC0D1FFF760FC77
:102F3C00801B41F288339842F3D9032005E0D36912
:102F4C0023F08053D361BBE7002002B070BD00BFFB
:102F5C0000100240007000400000424270B582B088
:102F6C000024A446A6E0804DAA4210D007D97F4D7C
:102F7C00AA420CD005F58035AA4208D013E0A5F57D
:102F8C008015AA4203D005F57025AA4207D18A689C
:102F9C00002A58D0012A51D04361082403E0A5F53A
:102FAC008015AA42F3D0BEF1FF0F4ED80646BEF1F3
:102FBC00FF0F4CD84FEA8C0233680F25954023EA5B
:102FCC00050304FA02F2134333604B6813F0805F7D
:102FDC006ED0674B9A6942F001029A619B6903F0CB
:102FEC0001030193019B4FEA9C02951C614B53F822
:102FFC0025600CF003039D000F23AB4026EA03066B
:10300C005D4B984229D003F58063984200F08E8086
:10301C0003F58063984200F08B8003F5806398423F
:10302C0019D004231AE0CC68BDE7CC680434BAE7A5
:10303C00CC680834B7E7CC680C34B4E703610824D7
:10304C00B1E70024AFE70424ADE7061DAFE7ACF110
:10305C0008029200B0E7032300E00023AB403343A7
:10306C000232444D45F822304B6813F4801F61D076
:10307C00424A936843EA0E0393604B6813F4001FB3
:10308C005ED03E4AD36843EA0E03D3604B6813F418
:10309C00003F5BD0394A536843EA0E0353604B68D8
:1030AC0013F4803F58D0354A136843EA0E0313607B
:1030BC000CF1010C0A6832FA0CF353D0012303FA19
:1030CC000CF302EA030E33EA0202F1D14A68122A27
:1030DC003FF649AF122A3FF666AF01A555F822F02C
:1030EC009B2F0008333000083D3000084F3000089B
:1030FC00B32F0008B32F0008B32F0008B32F00081C
:10310C00B32F0008B32F0008B32F0008B32F00080B
:10311C00B32F0008B32F0008B32F0008B32F0008FB
:10312C00B32F00083730000843300008012395E71F
:10313C00022393E7114A936823EA0E0393609CE7FA
:10314C000E4AD36823EA0E03D3609FE70B4A5368F9
:10315C0023EA0E035360A2E7084A136823EA0E031E
:10316C001360A5E702B070BD000022100000311002
:10317C000010024000000140000801400004014022
:10318C000AB101617047090401617047074AD368AD
:10319C0023F4E0631B041B0C000200F4E060034307
:1031AC0043F0BF6343F40033D360704700ED00E09D
:1031BC0000B5194BDB68C3F30223C3F1070CBCF158
:1031CC00040F28BF4FF0040C03F1040EBEF1060FE0
:1031DC0018D9033B4FF0FF3E0EFA0CFC21EA0C0110
:1031EC0099400EFA03F322EA0303194300280BDB80
:1031FC000901C9B200F1604000F5614080F800138C
:10320C005DF804FB0023E5E700F00F000901C9B2EB
:10321C00024B1954F4E700BF00ED00E014ED00E0A0
:10322C00002807DB00F01F02400901239340024AEB
:10323C0042F82030704700BF00E100E00138B0F1E7
:10324C00807F0BD24FF0E0235861054AF02182F8C1
:10325C0023100020986107221A61704701207047E3
:10326C0000ED00E010B504460268136923F44053E6
:10327C00C1680B43136183680269134342691A43A3
:10328C000168CB6823F4B05323F00C031343CB60D9
:10329C000268536923F4407381690B4353610268DC
:1032AC00134B9A4220D0FFF7ADFD024602EB82028F
:1032BC0002EB820263689B00B2FBF3F20D48A0FBA9
:1032CC0002314909642303FB11231B013233A0FB98
:1032DC0003235B0903F0F00202EB011203F00F036E
:1032EC00216813448B6010BDFFF79CFD0246DDE79F
:1032FC00003801401F85EB5160B310B5044690F8BF
:10330C00413013B3242384F841302268D36823F46A
:10331C000053D3602046FFF7A5FF2268136923F4FE
:10332C00904313612268536923F02A035361226886
:10333C00D36843F40053D36000206064202384F8E6
:10334C00413084F84230606310BD80F84030FCF7A7
:10335C00E5FFD7E701207047704798B108B50346E1
:10336C00D0F8B40210B10020C3F8B40209B1C3F80C
:10337C00B012012183F89C121A701846FDF7A2F9BD
:10338C00002008BD0220704719B1C0F8B41200200B
:10339C0070470220704708B5FDF7D6F9002008BD2C
:1033AC0008B5D0F8B4322BB11B68984700B908BDEA
:1033BC000220FCE70220FAE708B5D0F8B4325B68CB
:1033CC009847002008BD38B5044600F52A752846F4
:1033DC0000F035F90123C4F89432B4F8AE32C4F8D5
:1033EC00983294F8A81201F01F03012B0ED0022B77
:1033FC0011D02BB101F080012046FDF7C0F903E09C
:10340C002946204600F0CAFA002038BD294620463D
:10341C0000F0F8FAF8E72946204600F023FBF3E722
:10342C0038B504460D4691BB1346D0F89422032AB6
:10343C0003D0052A24D0084633E0D0F86011D0F828
:10344C00642191420DD9891AC0F860118A4206D9BB
:10345C008AB21946204600F037FC284621E092B289
:10346C00F7E7D0F8B4321B691BB190F89C22032A01
:10347C0004D0204600F030FC284612E09847F8E7CC
:10348C000021C0F89412FDF77AF9284609E0D0F82B
:10349C00B4329B6933B190F89C22032A04D198472B
:1034AC00002038BD0220FCE70220FAE738B50446BC
:1034BC000D46002953D11346D0F89422022A0CD081
:1034CC00042A00D01AB980212046FDF758F994F847
:1034DC00A032012B3ED0284638BD016A426A914287
:1034EC001BD8C169B1FBF2F302FB13132BB98A424F
:1034FC0003D8D0F8983299421CD3D4F8B432DB6894
:10350C001BB194F89C22032A21D080212046FDF780
:10351C0036F9204600F0EBFBD9E78A1A026292B228
:10352C00194600F0BAFB00231A4619462046FDF74F
:10353C005DF9CCE70022114600F0AFFB0021C4F886
:10354C0098120B460A462046FDF750F9BFE7204675
:10355C009847DAE7002384F8A0322846BCE7D0F875
:10356C00B4325B6933B190F89C22032A04D198479A
:10357C000020B1E70220AFE70220ADE770B50446AA
:10358C00402300221146FDF7E7F80125C4F85851F5
:10359C004026C4F864613346002280212046FDF7A2
:1035AC00DBF8A561666284F89C520023C4F894325F
:1035BC006360C4F8A432D4F8B8322BB1D4F8B43266
:1035CC005B68002120469847002070BD01740020E4
:1035DC00704790F89C3280F89D32042380F89C321E
:1035EC000020704790F89C32042B01D000207047CB
:1035FC0090F89D3280F89C32F8E708B590F89C3230
:10360C00032B01D0002008BDD0F8B432DB69002BAD
:10361C00F8D09847F6E70346002002E00130C0B22C
:10362C0001331A78002AF9D1704708B54B88012B61
:10363C0000D008BDC0F8A43200F04EFBF9E70B78BF
:10364C0003704B7843708B78CA7803EB022343806A
:10365C000B794A7903EB022383808B79CA7903EBCC
:10366C000223C380704710B504468021FDF787F80C
:10367C0000212046FDF783F810BD30B583B0054618
:10368C000C460023ADF806304A88130A013B062B82
:10369C0000F2A480DFE803F004182CA2A2869300A9
:1036AC00D0F8B0321B680DF10601007C9847BDF8CC
:1036BC0006201AB1E388002B40F09480E388002B9D
:1036CC0000F09A8003B030BD037C43B9D0F8B4321B
:1036DC009B6A0DF10600984702234370E7E7D0F888
:1036EC00B432DB6A0DF10600984702234370DEE723
:1036FC00D2B2052A52D8DFE802F003101D2A374453
:10370C00D0F8B0325B6823B10DF10601007C98470C
:10371C00CDE72146FFF7A7FFD4E7D0F8B0329B687E
:10372C0023B10DF10601007C9847C0E72146FFF755
:10373C009AFFC7E7D0F8B032DB6823B10DF1060170
:10374C00007C9847B3E72146FFF78DFFBAE7D0F826
:10375C00B0321B6923B10DF10601007C9847A6E736
:10376C002146FFF780FFADE7D0F8B0325B6923B19B
:10377C000DF10601007C984799E72146FFF773FF8E
:10378C00A0E7D0F8B0329B6923B10DF10601007CA3
:10379C0098478CE72146FFF766FF93E72146FFF732
:1037AC0062FF8FE7037C33B9D0F8B4325B6B0DF159
:1037BC00060098477BE72146FFF755FF82E7037C1D
:1037CC0043B9D0F8B4321B6B0DF1060098470723B0
:1037DC0043706CE72146FFF746FF73E72146FFF77E
:1037EC0042FF6FE79A4228BF1A46ADF80620014601
:1037FC00284600F045FA61E7284600F06DFA61E7CB
:10380C0038B504468B88F3B9CB88E3B94B887F2B4A
:10381C0019D803F07F0590F89C32032B0CD080F85C
:10382C009E522946FCF7D2FF204600F055FA35B1DE
:10383C00022384F89C3209E0FFF715FF06E0012310
:10384C0084F89C3202E02046FFF70DFF38BD0000E3
:10385C0038B504460D468978284B197001290ED8C5
:10386C0090F89C32022B0ED0032B21D02946FFF767
:10387C00FAFE224B19782046FFF79EFD02E02946FE
:10388C00FFF7F1FE38BD81B14160032380F89C3213
:10389C00FFF786FD022803D0204600F01DFAF1E761
:1038AC0029462046FFF7DFFEECE700F015FAE9E7C2
:1038BC0089B1436899421DD0D9B2FFF77DFD0F4BFA
:1038CC00197861602046FFF76BFD02280DD0204669
:1038DC0000F002FAD6E7022380F89C324160FFF731
:1038EC006BFD204600F0F8F9CCE729462046FFF79F
:1038FC00BAFEC7E700F0F0F9C4E700BFB813002028
:10390C0008B5CB88012B0AD190F89C32022B09D92F
:10391C00032B09D10122011D00F0B2F901E0FFF7E0
:10392C00A2FE08BD5BB213B9FFF79DFEF9E7014695
:10393C00002341F8083F012200F0A2F9F1E708B595
:10394C0090F89C32013B022B12D8CB88022B0CD165
:10395C000123C360D0F8A4320BB10323C36002224D
:10396C0000F10C0100F08CF908BDFFF77CFEFBE7C1
:10397C00FFF779FEF8E708B590F89C32013B022B73
:10398C0009D84B88012B00D008BD0023C0F8A43205
:10399C0000F0A2F9F8E7FFF766FEF5E708B50B783B
:1039AC0003F06003202B05D0402B03D043B1FFF76D
:1039BC005AFE03E0D0F8B4329B689847002008BD4B
:1039CC004B78092B1BD8DFE803F011171A141A08CF
:1039DC00051A0E0BFFF751FEF0E7FFF711FFEDE7AD
:1039EC00FFF736FFEAE7FFF78BFFE7E7FFF7A7FFE5
:1039FC00E4E7FFF71AFEE1E7FFF7BDFFDEE7FFF7AD
:103A0C0032FEDBE738B505460C460B7803F0600355
:103A1C00202B06D0402B04D01BB1FFF724FE002036
:103A2C0038BD95F89C32013B022B16D82379012B1B
:103A3C000ED8D5F8B4329B68214628469847E388BF
:103A4C00002BECD10028EAD1284600F045F9E6E736
:103A5C0021462846FFF707FEE1E721462846FFF7F7
:103A6C0002FEDCE770B505468B880C7804F0600428
:103A7C00202C07D0DAB2402C04D05CB1FFF7F3FD58
:103A8C00002405E0D5F8B4329B68284698470024FA
:103A9C00204670BD202C09D04E78012E33D0032E39
:103AAC000AD0002E55D0FFF7DEFDF1E7D0F8B43286
:103ABC009B6898470446EBE790F89C32022B04D0A5
:103ACC00032B11D0FFF7CFFDE2E70AB1802A03D117
:103ADC002846FFF7C8FDDBE71146FCF750FE8021B6
:103AEC002846FCF74CFED3E74B8823B91AB1802A41
:103AFC0001D0CB881BB1284600F0EEF8C8E7114680
:103B0C00FCF73DFEF7E790F89C32022B04D0032B18
:103B1C0011D0FFF7A8FDBBE70AB1802A03D12846D4
:103B2C00FFF7A1FDB4E71146FCF729FE80212846DA
:103B3C00FCF725FEACE74B88002BA9D112F07F0FC8
:103B4C0003D1284600F0C8F8A2E71146FCF71FFE87
:103B5C00F7E790F89C02022806D0032829D02846C3
:103B6C00FFF781FD344693E70AB1802A13D113F095
:103B7C00800F15D102F07F0202EB8202910001F559
:103B8C00A8712944043100230B600222284600F05E
:103B9C0077F834467CE72846FFF765FD344677E72F
:103BAC0002F07F0202EB82029100103129440431B1
:103BBC00E9E75BB2002B1FDB02F00F0000EB80008B
:103BCC0005EB8000D0F8580120B3002B27DB02F066
:103BDC007F0303EB83039C0004F5A8742C4404348A
:103BEC000AB1802A24D100232360022221462846D0
:103BFC0000F046F834464BE702F00F0000EB800073
:103C0C0005EB800080690028DFD12846FFF72BFDEB
:103C1C0034463DE72846FFF726FD344638E702F0E8
:103C2C007F0303EB83039C0010342C440434D7E74C
:103C3C0011462846FCF7B3FD10B101232360D4E7ED
:103C4C0000232360D1E7D0B170B50D46164604466B
:103C5C00FFF7E1FC431C5B009BB233802B7003230A
:103C6C006B70022307E001345A1CD2B2E8540233C1
:103C7C00DBB20021A95420780028F4D170BD704724
:103C8C0008B513460222C0F89422C36103620A46A7
:103C9C000021FCF7A3FD002008BD08B513460A4619
:103CAC000021FCF79BFD002008BD08B5134603223C
:103CBC00C0F89422C0F85C31C0F860310A4600218B
:103CCC00FCF794FD002008BD08B513460A460021F8
:103CDC00FCF78CFD002008BD08B50423C0F8943215
:103CEC0000231A461946FCF779FD002008BD08B5DB
:103CFC000523C0F8943200231A461946FCF776FDCA
:103D0C00002008BD10B5D0F8B842D0F8BC325BB179
:103D1C0094F80002FF2807D09B6894F801222146F2
:103D2C009847FF2384F80032002010BD4323038002
:103D3C0000487047A40000204323038000487047CC
:103D4C00E80000204323038000487047380100201E
:103D5C000A230380004870472C01002038B5044624
:103D6C00D0F8B852FCF74AFDC5F80C02D4F8B832BA
:103D7C004BB1D4F8BC32DB6805F50371D5F80402FD
:103D8C009847002038BD0220FCE710B5D0F8B822C7
:103D9C00D0F8C042F2B101EB810300EB8303DB6985
:103DAC004BB101EB810C04EBCC04A46BB3FBF4FC26
:103DBC0004FB1C3323B10023C2F81432002010BDC5
:103DCC0001EB810300EB83030022DA611346FCF75D
:103DDC0005FDF3E70220F2E7F0B583B006460C468A
:103DEC00D0F8B87200238DF80730ADF804300B789A
:103DFC0013F0600527D0202D53D1CA88DAB113F007
:103E0C00800F0CD0D0F8BC329B683946607898474C
:103E1C00E28839463046FFF733FF002544E04B7803
:103E2C0087F800328B7987F80132CA883946FFF758
:103E3C003CFF002538E0D0F8BC329B680022487863
:103E4C009847002530E04F780A2F14D00B2F20D044
:103E5C001FB1FFF708FC022526E090F89C32032BDB
:103E6C0003D0FFF700FC02251EE0022201A9FFF798
:103E7C0007FF3D4618E090F89C32032B03D0FFF768
:103E8C00F2FB022510E001220DF10701FFF7F8FE0D
:103E9C000AE090F89C32032B06D0FFF7E4FB0225D6
:103EAC0002E0FFF7E0FB0225284603B0F0BD38B571
:103EBC0004468121FCF75BFC0025E56201212046CC
:103ECC00FCF755FCC4F86C5182212046FCF74FFCE2
:103EDC002564D4F8B8324BB1D4F8BC325B6898473F
:103EEC00D4F8B802FCF794FCC4F8B852002038BDE2
:103EFC0070B50446037CABBB4FF4007302228121E6
:103F0C00FCF72AFC0125E5624FF4007302222946D6
:103F1C002046FCF721FCC4F86C51082303228221B3
:103F2C002046FCF719FC012323644FF40770FCF7BF
:103F3C006BFC0546C4F8B80268B3D4F8BC321B68F5
:103F4C0098470023C5F81432C5F81832267CCEB930
:103F5C004FF40073D5F8042201212046FCF746FCEF
:103F6C00304670BD402302228121FCF7F5FB012570
:103F7C00E5624023022229462046FCF7EDFBC4F8FB
:103F8C006C51CAE74023D5F8042201212046FCF7E6
:103F9C002DFC0026E4E70126E2E719B1C0F8BC12BB
:103FAC000020704702207047D0F8B832C3F80812CE
:103FBC00C3F8102200207047D0F8B832C3F80412AE
:103FCC0000207047D0F8B82292B108B5037C43B9F1
:103FDC004FF40073D2F804220121FCF707FC0020F7
:103FEC0008BD4023D2F804220121FCF7FFFBF6E7C1
:103FFC0002207047FFF7B0F90B480C490C4A00231C
:10400C0002E0D458C4500433C4188C42F9D3094A82
:10401C00094C002301E013600432A242FBD300F0F0
:10402C000FF8FCF7D0F87047000000207C0100204E
:10403C00384100087C010020BC130020FEE7000082
:10404C0070B500260C4D0D4C641BA410A64209D172
:10405C0000F022F800260A4D0A4C641BA410A6425C
:10406C0005D170BD55F8043B98470136EEE755F87D
:10407C00043B98470136F2E7304100083041000814
:10408C00304100083441000803460244934200D1F9
:10409C00704703F8011BF9E7F8B500BFF8BC08BC82
:1040AC009E467047F8B500BFF8BC08BC9E467047EA
:1040BC0053544D3332205669727475616C20436FC2
:1040CC006D506F727400000053544D6963726F65CC
:1040DC006C656374726F6E696373000043444320B4
:1040EC00436F6E666967000043444320496E7465F4
:1040FC007266616365000000020304050607080987
:10410C000A0B0C0D0E0F1010010200000000000035
:10411C00000000000102030406070809000000006B
:04412C000102030485
:044130003101000851
:044134000D01000871
:10413800610400086D040008310500080D05000839
:10414800F90400084D050008710500081201000275
:1041580002020040830440570002010203010000EC
:10416800040309041A030000000000000000000016
:104178000000000000000000000000000000000037
:10418800B905000895050008990500089D0500086F
:1041980001000000100000000024F400FD3E0008AB
:1041A800BB3E0008E53D000800000000113D000886
:1041B800973D0008693D000800000000000000006D
:1041C80000000000453D0008393D0008513D000849
:1041D8005D3D000809024300020100C032090400E5
:1041E800000102020100052400100105240100015C
:1041F80004240202052406000107058203080010B2
:1042080009040100020A000000070501024000003D
:10421800070581024000000009024300020100C0B6
:104228003209040000010202010005240010010502
:104238002401000104240202052406000107058266
:104248000308001009040100020A00000007050124
:104258000200020007058102000200000A060002AF
:10426800000000400100000009074300020104C0EB
:1042780032090400000102020100052400100105B2
:104288002401000104240202052406000107058216
:104298000308001009040100020A000000070501D4
:0C42A800024000000705810240000000F9
:0400000508004001AE
:00000001FF
